:1000000012C024C023C022C021C020C01FC01EC0F7
:100010001DC01CC01BC01AC019C018C017C016C014
:1000200015C014C013C011241FBECFE5D4E0DEBF3D
:10003000CDBF10E0A0E6B0E0E8EBF0E002C0059034
:100040000D92A838B107D9F702D034C0D9CFCF93D9
:10005000DF93CDB7DEB7A8970FB6F894DEBF0FBE1B
:10006000CDBF81B38FEF81BB88E2E0E6F0E0DE0137
:10007000119601900D928A95E1F79E012F5F3F4FF7
:100080009AE0F90180E0979A4081482B42BB3A966A
:10009000805F8034C1F74FEF50E782E0415050401D
:1000A0008040E1F700C0000091502F5F3F4F911159
:0800B000E8CFE3CFF894FFCF85
:1000B80000010203040506070809060708090A0BD8
:1000C8000C0D0E0F000F010E020D030C040B010A9C
:0800D800050D0609080E0005E4
:00000001FF
