:1000000012C024C023C022C021C020C01FC01EC0F7
:100010001DC01CC01BC01AC019C018C017C016C014
:1000200015C014C013C011241FBECFE5D4E0DEBF3D
:10003000CDBF10E0A0E6B0E0E0ECF0E002C005903B
:100040000D92A838B107D9F702D038C0D9CFCF93D5
:10005000DF93CDB7DEB7A8970FB6F894DEBF0FBE1B
:10006000CDBF81B38FEF81BB88E2E0E6F0E0DE0137
:10007000119601900D928A95E1F79E01255F3F4F01
:10008000FE013196979A819182BB979A8185806112
:1000900082BB979A8389806282BB979A858D8063A1
:1000A00082BB4FEF80E792E0415080409040E1F703
:1000B00000C00000E217F30729F7E2CFF894FFCF62
:1000C00000010203040506070809060708090A0BD0
:1000D0000C0D0E0F000F010E020D030C040B010A94
:0800E000050D0609080E0005DC
:00000001FF
